:020000040000fa
:10000000f0ff032091a201004b0d01005b200100d5
:10001000e7480100eb6101004f6d010000000000a6
:10002000000000000000000000000000ebe2000003
:100030000b2e010000000000ebe20000ebe20000ec
:10004000ebe20000ebe20000ebe20000ebe200007c
:10005000ebe20000ebe20000ebe20000ebe200006c
:10006000ebe20000ebe20000ebe20000ebe200005c
:10007000ebe20000ebe20000ebe20000ebe200004c
:10008000ebe20000ebe20000ebe20000ebe200003c
:10009000ebe20000ebe20000ebe20000ebe200002c
:1000a000ebe20000ebe20000ebe20000ebe200001c
:1000b000ebe20000ebe20000ebe20000ebe200000c
:1000c000ebe20000ebe20000ebe20000ebe20000fc
:1000d000ebe20000ebe20000ebe20000ebe20000ec
:1000e000ebe20000ebe20000000000000000000076
:1000f00000000000ebe20000ebe20000ebe2000099
:10010000ebe20000ebe200005df700005df70000ad
:100110005df700005df70000ebe20000ebe200009d
:10012000ebe20000ebe20000ebe20000ebe200009b
:10013000ebe20000ebe20000ebe20000ebe200008b
:10014000ebe20000ebe20000ebe20000ebe200007b
:10015000ebe20000ebe20000ebe20000ebe200006b
:10016000ebe20000ebe20000ebe20000ebe200005b
:10017000ebe20000ebe20000ebe20000ebe200004b
:10018000ebe20000ebe20000ebe20000ebe200003b
:100190007d120200ebe20000ebe20000ebe2000067
:1001a000ebe20000ebe20000ebe20000ebe200001b
:1001b000ebe20000ebe20000ebe20000ebe200000b
:1001c000ebe20000ebe20000ebe20000ebe20000fb
:1001d000ebe20000ebe20000ebe20000ebe20000eb
:1001e000ebe20000ebe20000ebe20000351402005d
:1001f000ebe20000ebe20000ebe20000ebe20000cb
:10020000ebe20000ebe20000ebe20000ebe20000ba
:10021000ebe20000ebe20000ebe20000ebe20000aa
:10022000ebe20000ebe20000ebe20000ebe200009a
:10023000ebe20000ebe20000ebe20000ebe200008a
:10024000ebe20000ebe20000ebe20000ebe200007a
:10025000ebe20000ebe20000ebe20000ebe200006a
:04026000216a01000e
:020000040000fa
:10026400f8b500bff8bc08bc9e467047f5f3010022
:10027400f8b500bff8bc08bc9e467047d1f3010036
:020000040000fa
:0802840074ca00000100000033
:020000040000fa
:10028c002de9f04fadf23c5d0c461a2801f2c28408
:10029c00dfe810f01b00350071005c01bf0030037b
:1002ac008002bf022b03440afa0a420b4003ce0b16
:1002bc00540c98078002d1005701c40cc40cc40c18
:1002cc00600cb60cfa02fa02600c91f8423043f062
:1002dc0001036ff3410381f842300123cb73496969
:1002ec0039b10a2204f1430023f070fb012501f01f
:1002fc0096bc002384f84330012501f090bc91f8a2
:10030c00423013f0010f04d10623cb73012501f009
:10031c0086bcbf4b1b684bb34d69be4b1b68cb1add
:10032c001b11bd4a02fb03f3adf868314ff6ff73a6
:10033c00adf86a31b1f90400adf86c015ca91df09f
:10034c00abfab34b1e68b54b1b685aaa294604f18d
:10035c004300b047054648b194f8423043f00203dd
:10036c0084f842300223e37301f059bc0623e37393
:10037c00012501f054bc8b7b012b23d05ab222b146
:10038c00082b2dd0002501f04abcb1f90600b0f1c4
:10039c00ff3f10d0c96b09b118f01cfe20684369ef
:1003ac00616b9847b4f9060018f038f80123a37371
:1003bc00002501f034bc0323cb7308238b73002579
:1003cc0001f02dbcb1f906001df0b6f90546002868
:1003dc0041f02a840323e3730823a37301f01fbca9
:1003ec0000220121b4f9040013f048fa10b90025d9
:1003fc0001f015bcb4f904001df09ef90546002867
:10040c0001f00d84b4f9040017f016f8002501f082
:10041c0006bc486a1ef0fafd0546c3b22381a06ae9
:10042c001ef0f4fdc0b240ea052020810c23e373da
:10043c00012501f0f4bbdaad40f21112002128467f
:10044c0023f0aaf8764b0fcb85e80f00284622f054
:10045c0083fe002281b2b4f9040013f00ffa30b914
:10046c001723e37302232373012501f0d8bbdaa809
:10047c0022f072fe82b2daa9b4f9040019f034fa4f
:10048c00b4f904001df034fa40f211120021daa87c
:10049c0023f082f8634b93e80300da90adf86c1309
:1004ac00090c8df86e13daa822f056fe002281b2e8
:1004bc00b4f9040013f0e2f930b91723e373022303
:1004cc002373012501f0abbbdaa822f045fe82b202
:1004dc00daa9b4f9040019f007fab4f904001df014
:1004ec0007fa40f211120021daa823f055f84e4a0f
:1004fc00daab07ca03c31a80daa822f02dfe002259
:10050c0081b2b4f9040013f0b9f930b91723e373cd
:10051c0002232373012501f082bbdaa822f01cfe12
:10052c0082b2daa9b4f9040019f0def9b4f90400c6
:10053c001df0def91723e37302232373012501f069
:10054c006ebb1423cb73012501f069bb8b7b012b94
:10055c0034d05ab2b2b1022b40f016814e6bb4f9c2
:10056c0006001df0e9f8054600285fd0226b002a32
:10057c005cd0b6f1ff3f42d02068056a00233146bb
:10058c00a84758e091f8423013f0020f09d013f04d
:10059c00040f0bd00e23e3730123a373002501f08a
:1005ac003ebb0623cb73012501f039bb084616f080
:1005bc0065f90028eed1012501f031bbb1f9060037
:1005cc001df0baf80546002801f02983236b002b97
:1005dc0040f0dd8020680368012261699847064677
:1005ec00b0f1ff3f03d060630223a373b7e70d2381
:1005fc00e373204620f0d6fe002501f010bb132338
:10060c00e37300232363204620f0ccfe01f007bbec
:10061c00746000207c6000203dcff33c70600020b3
:10062c0078fe000088fe000090fe0000b4f9060081
:10063c001df082f878b394f8423013f0080f1cbf09
:10064c0043f0100384f84230b4f9060017f03cff75
:10065c000546002836d04ff4007200215aa822f02b
:10066c009bffb5f5007f28bf4ff40075aab25aa9bd
:10067c00b4f9060013f014fe0346002856d0206887
:10068c00056b5aaa3146a847b0f1ff3f65d021f05f
:10069c0089f9e062d8e720684369314698474ff002
:1006ac00ff336363002222631023e37394f8423018
:1006bc0062f3820384f84230204620f073fe012559
:1006cc0001f0adba94f8423013f0100f0cd1206841
:1006dc00436a31469847b0f1ff3f07bf00252563b9
:1006ec002063002501f09bba94f842306ff3041399
:1006fc0084f84230606b1bf0e1fa4ff0ff33636318
:10070c00002525630923e37394f8423065f38203d3
:10071c0084f84230204620f045fe94f8423065f3d0
:10072c00c30384f84230012501f079ba206843698b
:10073c00314698474ff0ff3363630022226309234d
:10074c00e37394f8423062f3820384f8423020461b
:10075c0020f028fe012501f062ba20684369314679
:10076c0098474ff0ff336363002222630923e3733e
:10077c0094f8423062f3820384f84230204620f031
:10078c0011fe012501f04bba002501f048ba0025f5
:10079c0001f045ba4ff4807200215aa822f0fcfef9
:1007ac002068836bff225aa9984720b10d23e3736d
:1007bc00012501f034ba40f211120021daa822f01e
:1007cc00ebfe5aaaba49daa822f0c0fadaa822f04b
:1007dc00c3fc002281b2b4f9040013f04ff820b925
:1007ec001723e37302232373e2e7daa822f0b4fca5
:1007fc0082b2daa9b4f9040019f076f8b4f904005d
:10080c001df076f81723e37302232373012501f0ff
:10081c0006ba0868436b4969984740b92068836bee
:10082c00ff225aa9984738b10d23e37301e00d2339
:10083c00e373012501f0f3b95aaa9e49daa822f014
:10084c0085fadaa822f088fc002281b2b4f90400ff
:10085c0013f014f820b91723e37302232373e8e78a
:10086c00daa822f079fc82b2daa9b4f9040019f002
:10087c003bf8b4f904001df03bf81723e373022393
:10088c002373012501f0cbb90868036949699847be
:10089c0040b220b10d23e373012501f0c0b96269a8
:1008ac0085495aa822f052fa5aa822f055fc002287
:1008bc0081b2b4f9040012f0e1ff20b91723e373fd
:1008cc0002232373e8e75aa822f046fc82b25aa905
:1008dc00b4f9040019f008f8b4f904001df008f894
:1008ec001723e37302232373d6e70c23cb73012561
:1008fc0001f095b90c23cb73b1f90630b3f1ff3f7e
:10090c0002d1012501f08bb9084620f04bfd0125e1
:10091c0001f085b94ff4907200215aa822f03cfee8
:10092c00664a09ab07ca03c31a80a37b082b00f2e3
:10093c003d84dfe813f009002a003b047f00cb0064
:10094c00d501eb01fa022b0494f8423013f0040f9a
:10095c000bd094f8423013f0020f0ed00823e3733f
:10096c000123a373002501f05ab9204615f086ff28
:10097c000028eed1012501f052b90623e37320467d
:10098c0020f010fd012501f04ab9b4f906001cf065
:10099c00d3fe0546002801f042810323a373676947
:1009ac003b7823b90523a373002501f038b9dff890
:1009bc0018810026b2464ff0ff0b00bf5ffa86f994
:1009cc004146384622f07cfc90b13d4b83f800a0a8
:1009dc003c4b83f800b0013608f10508032eedd12d
:1009ec00384622f0b9fbff281ad8002501f017b9b8
:1009fc00334b01221a70334b83f80090a06922f01c
:100a0c00abfbff2802d8002501f009b90d23e373d5
:100a1c00204620f0c7fc2a4b00221a7001f0ffb8c8
:100a2c000d23e373204620f0bdfc254b00221a70e9
:100a3c0001f0f5b8224b1d78e5b1206843685aaa3d
:100a4c00a1699847b0f1ff3f0ad09df8703113f0bf
:100a5c00100f0cbf04230523a373002501f0dfb88e
:100a6c000d23e373204620f09dfc154b00221a70d9
:100a7c0001f0d5b8206843685aaa61699847b0f16b
:100a8c00ff3f09d09df8703113f0100f0cbf0423f9
:100a9c000523a37301f0c3b80d23e373204620f0a4
:100aac0081fc074b00221a70012501f0b8b800bf79
:100abc009cfe0000b0fe0000c4fe00007c83010020
:100acc00016100207f6200205c620020b54e304640
:100adc0022f042fb012281b2b4f9060012f0cefee4
:100aec0005464ff497720021304622f055fdae4b6f
:100afc001b78ff2b18d0236b002b55d0ab4b1e88cb
:100b0c00b54240d2a74f384622f026fb811b2a461d
:100b1c003944b4f9060018f0e7fea44a13885d1bab
:100b2c001580002501f07bb8236b002be6d16269a0
:100b3c009f49304622f00af9304622f00dfb06b2ee
:100b4c00ae4219dd002e12dd964f00bfb4f90680bf
:100b5c00384622f001fb85422cbf82b22a46394628
:100b6c00404618f0c1fe761b36b2002eeedc082390
:100b7c00a373002501f053b882b28a49b4f9060078
:100b8c0018f0b2fef3e7874d284622f0e5fa811bf8
:100b9c0032462944b4f9060018f0a6fe0025834b12
:100bac001d80256301f03bb8dff8f8814ff4977294
:100bbc000021404622f0f0fc46467e4f0fcf0fc678
:100bcc000fcf0fc63b683370404622f0c5fa854202
:100bdc0018d801232363b4f90660724822f0bcfada
:100bec0085422cbf82b22a466e4c2146304618f004
:100bfc007bfe204622f0b0fa401b6c4b188000257f
:100c0c0001f00db882b24146b4f9060018f06cfe42
:100c1c000026664b1e802663139614961596169620
:100c2c00179618968df864600d960e960f96bdf873
:100c3c006c31bdf86e11c3f34312480000f03e0056
:100c4c000390c1f345100290c90a0191590a01f2af
:100c5c00bc71009103f01f03013a574913a822f00d
:100c6c0075f85a9a55490da822f070f84ff49772fe
:100c7c003146404622f090fca36900930dab13aab9
:100c8c004f49404622f062f8404622f065fa854210
:100c9c0018d801232363b4f90660424822f05cfaa9
:100cac0085422cbf82b22a463e4c2146304618f073
:100cbc001bfe204622f050fa401b3c4b18800025ae
:100ccc0000f0adbf82b23749b4f9060018f00cfe43
:100cdc000025364b1d8025630823a37300f09fbfae
:100cec004ff4977200212f4822f056fc2e4b1b78a4
:100cfc00ff2b2ed02068c368a1699847b0f1ff3f45
:100d0c0033d06063002323630623a373254822f0aa
:100d1c0023fa012281b2b4f9060012f0affd0746a6
:100d2c00236b002b52d0214b1d88a84228d21d4e7c
:100d3c00304622f011fa411b3a463144b4f9060010
:100d4c0018f0d2fd194a1388df1b1780002500f01c
:100d5c0066bf61690b7823b92068c3681949984745
:100d6c00cce72068c3689847c8e70d23e373204697
:100d7c0020f018fb144b00221a70012500f04fbf15
:100d8c00084e304622f0e8f9411b2a463144b4f9aa
:100d9c00060018f0a9fd0025044b1d80256300f00a
:100dac003ebf00bfa45400207f620020f6600020ec
:100dbc00e4fe000088830100ecfe00000cff000044
:100dcc0010ff000024ff000001610020dff83082da
:100ddc004ff497720021404622f0defb4546874ec9
:100dec000fce0fc50fce0fc533682b70404622f0c7
:100dfc00b3f9874218d801232363b4f9065080480d
:100e0c0022f0aaf987422cbf82b23a467c4c21468a
:100e1c00284618f069fd204622f09ef9c01b794b3c
:100e2c001880002500f0fbbe82b24146b4f90600e2
:100e3c0018f05afd0023734a138023631aaba09356
:100e4c00ff23a193d4f834906f4821f0f9fb0546a9
:100e5c0000285ed0dff8b8b1dff8b0a10027cdf8dc
:100e6c007e71cdf88271cdf886718df88a71ff2272
:100e7c0039461aa822f090fb5aab20225946484614
:100e8c0011f036fab0f1ff3f46d04ff49472daf815
:100e9c0000105d4821f04cfd0646002859d09df805
:100eac0070310373bdf86c310381bdf86e31438131
:100ebc0000f11a084ff480723946404622f06cfb60
:100ecc000df5bf71404622f07bfd5a9b7360a19bd0
:100edc00c6f82031a09822f03ff9c6f81c7183b2f5
:100eec00002bbcd01f46daf800309b687a1c01211d
:100efc00daf80000984700283cd0c6f81c013a46a6
:100f0c00a09921f0d9fdd6f81c311f4400237b7029
:100f1c00a4e7012500f083be206883694946984701
:100f2c004ff0ff3363630723a373374b1e683448ba
:100f3c0022f012f9012281b2b4f9060012f09efce3
:100f4c000746002e52d0002800f03381dff8b4a001
:100f5c00d6e020688369494698474ff0ff336363b6
:100f6c000d23e373204620f01dfa27481ff0bbfc2d
:100f7c0000f055be20688369494698474ff0ff330f
:100f8c0063630d23e373204620f00cfa1e4b9b6821
:100f9c00002b13dd1d4c1c4f08e038461ef040fda5
:100fac0006462068c368314698473eb1d6f81c11f6
:100fbc000029f2d02068c3689847eee712481ff06a
:100fcc0092fc00f02cbedff83880404622f0c4f8ca
:100fdc00411b3a464144b4f9060018f085fc094a15
:100fec001388df1b1780002e40f0e68006481ff0a8
:100ffc007afc0823a373002500f011be888301003e
:10100c00a4540020f6600020105f002084600020b3
:10101c0028ff000000251395149515951695179526
:10102c0018958df864500d950e950f95dff8288363
:10103c004ff497794a462946404622f0adfa328958
:10104c007389590001f03e010391c3f345110291dc
:10105c00db0a0193530a03f2bc73009302f01f03e3
:10106c00c2f34312b84913a821f070fe7268b74955
:10107c000da821f06bfe96f80cb0cbf3001b4a4682
:10108c002946404622f088fad6f81c21002a61d065
:10109c0009ab03eb8b0301920daa00925b4413aadc
:1010ac00ab49404621f052feaa4b1868c368d6f8eb
:1010bc001c119847a84822f04ff885b2bd4257d270
:1010cc002a46bd4228bf3a4692b2a349b4f906005b
:1010dc0018f00afc0023aaf8003023637f1bbfb270
:1010ec009e4d28461ef09cfc9a4b1b68da68014604
:1010fc00184690472e68002e3ff478af002f5ed034
:10110c00236b002b86d0baf80050bd423ff65baf84
:10111c00914e304622f020f8411b2a463144b4f956
:10112c00060018f0e1fbbaf80030ff1abfb200233a
:10113c00aaf800302363894d28461ef071fc854bbc
:10114c001b68da680146184690472e68002e7ff41b
:10115c0061af4be709ab03eb8b031a3601960daa73
:10116c0000925b4413aa7a497b4821f0effda1e77a
:10117c00012323633a467849b4f9060018f0b4fb0e
:10118c00ed1b774b1d80002500f049bd204620f05b
:10119c0009f91023e373734bff221a700023704a72
:1011ac001380714a1370012500f039bd002500f041
:1011bc0036bd002500f033bd002500f030bd002504
:1011cc0000f02dbd4ff4907200215aa822f0e4f9e2
:1011dc000dad664e0fce0fc596e8030045f8040b17
:1011ec002980a37b082b00f29182dfe813f0090021
:1011fc002a008f028f028f023700430046018802bb
:10120c0094f8423013f0040f0bd094f8423013f0e2
:10121c00020f0ed00823e3730123a373002500f003
:10122c00febc204615f02afb0028eed1012500f06b
:10123c00f6bc0623e373204620f0b4f8012500f039
:10124c00eebcb4f906001cf077fa0546002800f055
:10125c00e6840523a373002500f0e1bc2068c36875
:10126c0043499847b0f1ff3f26d0606300232363c6
:10127c000623a3733f4821f06fff012281b2b4f91a
:10128c00060012f0fbfa0746236b73b33a4b1d882a
:10129c00a84219d2374e304621f05eff411b3a4628
:1012ac003144b4f9060018f01ffb334a1388df1bd6
:1012bc001780002500f0b3bc0d23e373204620f00b
:1012cc0071f8012500f0abbc2a4e304621f044ffea
:1012dc00411b2a463144b4f9060018f005fb0025e1
:1012ec00254b1d80256300f09abcdff888804ff4f5
:1012fc00a6720021404622f04ff945461f4e0fcef4
:10130c000fc50fce0fc533682b70404621f024ff5c
:10131c00874235d801232363b4f90650154821f0d0
:10132c001bff87422cbf82b23a46124c21462846fc
:10133c0018f0dafa204621f00fffc01b0e4b188074
:10134c00002500f06cbc00bfecfe00000cff0000a0
:10135c002cff000084600020a4540020105f0020ab
:10136c00f66000207f62002001610020ac83010048
:10137c0024ff000058530020f460002088830100f3
:10138c000021714b198021631aaeff252a46304685
:10139c0022f002f9a096a195d4f834906b4821f074
:1013ac004ff9054600285dd00026dff8aca1cdf83a
:1013bc007e61cdf88261cdf886618df88a61ff225d
:1013cc0031461aa822f0e8f85aab32465146484644
:1013dc0010f08effb0f1ff3f46d04ff494725c4b8f
:1013ec0019685a4821f0a4fa0746002859d09df8ec
:1013fc0070310373bdf86c310381bdf86e314381dc
:10140c0000f11a084ff480723146404622f0c4f8bd
:10141c000df5bf71404622f0d3fa5a9b7b60a19b1d
:10142c00c7f82031a09821f097fec7f81c6183b251
:10143c00002bbcd0464b1b681ffa80f8d3f808b0c1
:10144c0008f1010201211846d847002839d0c7f805
:10145c001c014246a09921f02ffbd7f81c014044f7
:10146c004670a4e70125dae320688369494698476a
:10147c004ff0ff3363630723a373344b1e68354867
:10148c0021f06afe012281b2b4f9060012f0f6f9dd
:10149c000746002e50d0002800f03a81dff8a890c3
:1014ac00e0e020688369494698474ff0ff33636357
:1014bc000d23e37320461ff075ff24481ff013fa29
:1014cc00ade320688369494698474ff0ff33636367
:1014dc000d23e37320461ff065ff1c4b9b68002b0c
:1014ec0013dd1b4c194e08e030461ef099fa0746e6
:1014fc002068c368394698473fb1d7f81c110029ba
:10150c00f2d02068c3689847eee710481ff0ebf95b
:10151c0085e3dff84080404621f01efe411b3a4631
:10152c004144b4f9060018f0dff9074a1388df1bb1
:10153c001780002e40f0ee8004481ff0d4f90823e9
:10154c00a37300256be300bff4600020105f002044
:10155c00846000205853002028ff000000251395bc
:10156c00149515951695179518958df86450099541
:10157c000a950b958df83050069507950895dff870
:10158c00fca24ff4a67b5a462946504622f004f89a
:10159c003389c3f34312013a590a01f2bc71009129
:1015ac0003f01f03ae4951f82220ae4913a821f0d5
:1015bc00cdfb7289c2f34513d20aab4909a821f0bd
:1015cc00c5fb7268a94906a821f0c0fb96f80c80ef
:1015dc00c8f300185a462946504621f0ddffd6f8cc
:1015ec001c11002969d0a24b4fea8802424408eb37
:1015fc004202049113a9039106a90291019300934d
:10160c000da90a449b49504621f0a0fb9a4b18683f
:10161c00c368d6f81c119847984821f09dfd85b2f7
:10162c00bd425fd22a46bd4228bf3a4692b2934988
:10163c00b4f9060018f058f90023a9f80030236318
:10164c007f1bbfb28e4d28461ef0eaf98a4b1b68f1
:10165c00da680146184690472e68002e3ff46cafae
:10166c00002f59d0236b002b3ff478afb9f8005002
:10167c00af42fff44eaf814e304621f06dfd411b61
:10168c002a463144b4f9060018f02ef9b9f80030a6
:10169c00ff1abfb20023a9f800302363784d284607
:1016ac001ef0bef9744b1b68da6801461846904769
:1016bc002e68002e7ff452af3ee76d4b4fea880246
:1016cc00424408eb42021a36049613a9039106a968
:1016dc000291019300930da90a446649674821f0d1
:1016ec0035fb99e7012323633a466449b4f90600b4
:1016fc0018f0faf8ef1b634b1f8000258fe2204691
:10170c001ff050fe1023e373012588e2002586e2ca
:10171c00002584e2002582e2002580e20b6b5bb998
:10172c00086803680022496998470146b0f1ff3ff9
:10173c000bd0206843699847a37b012b22d05ab267
:10174c003ab1032b2ad0002569e20d23e37301255e
:10175c0065e294f8423013f0020f08d013f0040f36
:10176c0009d00e23e3730123a373002557e206234c
:10177c00e373012553e2204615f080f80028f0d1e0
:10178c0001254ce2b4f906001bf0d6ff05460028f3
:10179c0000f045820323a373002540e2226b002a4c
:1017ac003cd120680368616998478046b0f1ff3fdf
:1017bc0000f03c8260630023236301224ff400712c
:1017cc00b4f9060012f05af80546c8b1474620682d
:1017dc00c66a2b46b5f5007f28bf4ff400735aaa92
:1017ec003946b047064620b382b25aa9b4f906006e
:1017fc0018f07af8ad1b20f0d5f8e062002de6d198
:10180c002068436a41469847b0f1ff3f06bf00236a
:10181c0023632063236bb3b1002500e2616b884620
:10182c00b1f1ff3f00f002822068056a0023a8474f
:10183c00c3e720684369394698474ff0ff33636329
:10184c0000232363e6e720461ff0acfd0923e37376
:10185c0094f842306ff3820384f842300125dee1c4
:10186c00580c020040ff000050ff00000cff00006d
:10187c00c483010058ff00008460002058530020ee
:10188c00105f0020f460002008680368002249699a
:10189c0098470546b0f1ff3f21d02068c36929461f
:1018ac00984700268df87c640246c3490df27c40b3
:1018bc0021f04cfa0df27c4021f04efc324681b204
:1018cc00b4f9040011f0daff68b91723e3730223ab
:1018dc002373206843692946984701259fe10d230e
:1018ec00e37301259be10df27c4021f035fc82b2c3
:1018fc000df27c41b4f9040017f0f6ffb4f90400c2
:10190c001bf0f6ff1723e37302232373206843694c
:10191c0029469847012582e100200190009003465a
:10192c00012206210df032fbe080b0f1ff3f40d0e8
:10193c000023a24a40f2046117f070fde063002816
:10194c003bd00df5a061b4f904001bf0a5ff0df51b
:10195c009961b4f906001bf09fff00258df888549f
:10196c00bdf8ee34dab203921b0a02939df81735d8
:10197c0001939df8163500939df815359df81425a7
:10198c008f490df5916021f0e1f9bdf8ee3423811a
:10199c000df5916021f0e0fb2a4681b2b4f9040008
:1019ac0011f06cff88b91723e3730223237301250d
:1019bc0035e10a23e373012531e1b4f9060016f091
:1019cc002dfd0a23e373012529e10df5916021f02a
:1019dc00c3fb82b20df59161b4f9040017f084ffda
:1019ec00b4f904001bf084ff1723e3730223237361
:1019fc00744bda8852b9734b1a8982b994f8423015
:101a0c0043f0040384f84230012508e10321b4f9c2
:101a1c0006001bf065fe05460028ecd1ffe0022114
:101a2c00b4f906001bf05cfe05460028e6d1f6e092
:101a3c0091f84130012b03d91223cb730125eee031
:101a4c000df5a061b4f904001bf026ff00200190f5
:101a5c00009003469df8002506210df097fae080d2
:101a6c00b0f1ff3f2bd00023544a40f2046117f031
:101a7c00d5fce06338b30df59961b4f906001bf0a1
:101a8c000bff00258df88854bdf8ee244e490df55a
:101a9c00916021f05bf9bdf8ee3423810df5916076
:101aac0021f05afb2a4681b2b4f9040011f0e6fe8b
:101abc0088b91723e373022323730125afe00a23ac
:101acc00e3730125abe0b4f9060016f0a7fc0a237a
:101adc00e3730125a3e00df5916021f03dfb82b28b
:101aec000df59161b4f9040017f0fefeb4f9040091
:101afc001bf0fefe1723e37302232373314bda88aa
:101b0c0052b9304b1a8982b994f8423043f004032d
:101b1c0084f84230012582e00321b4f906001bf061
:101b2c00dffd05460028ecd179e00221b4f906006e
:101b3c001bf0d6fd05460028e6d170e048691df083
:101b4c0065fa6081e0691df061fa20810c23e37372
:101b5c00012564e091f8423013f0020f03d1062303
:101b6c00cb7301255be00868836849699847b0f13d
:101b7c00ff3f04d0d8b91523e37301254fe021f0c2
:101b8c0001ff0546802200215aa821f005fd072df2
:101b9c001cd0102d20d05aa821f0defa002281b2e0
:101bac00b4f9040011f06afee0b9022323730d238b
:101bbc00e373012533e000bf78ff000095d60100e8
:101bcc0084ff0000c05f0020b4ff000062691f4961
:101bdc005aa821f0bbf8dee762691d495aa821f02a
:101bec00b5f8d8e75aa821f0b7fa82b25aa9b4f9d5
:101bfc00040017f079feb4f904001bf079fed6e767
:101c0c0091f8423013f0020f14bf0c230623cb7350
:101c1c00012504e00523cb73012500e001252846ae
:101c2c000df23c5dbde8f08f0025f8e71023e3735f
:101c3c000025256320461ff0b5fb94f8423065f370
:101c4c00820384f842300125e9e700bfe4ff00007d
:041c5c00080001007b
:020000040000fa
:101c60002de9f04385b00446002303934ff44475f7
:101c700005fb00f5b84e2e4496f80c33012b04bf3b
:101c8000002286f80c23b44a4ff4447303fb00236c
:101c9000d3f8ac7293f8bf32102b01f21883dfe84f
:101ca00013f01d004d005f009400d208380a720a3c
:101cb000b10adb0a030b450b790ba40bd40bf30b16
:101cc000350c1100d6f8ac52002d01f07184a24bf6
:101cd0004ff4447808fb003801f05abc9e4a4ff498
:101ce000447303fb00239b789bb94ff4447303fbbd
:101cf00000239b689b6b9847002801f0e882964a76
:101d00004ff4447303fb0423012283f8bf2201f044
:101d1000deba914e05f1100131441bf0aef84ff4dc
:101d2000447505fb0465ab685b6898478b4bc5f849
:101d30009432032385f8bf3201f0c9ba8849294497
:101d4000fa201cf063fb002841f0c182824a4ff464
:101d5000447303fb0423022283f8bf2201f0b7bac5
:101d60007d4a4ff4447303fb0023d3f8c80221f0eb
:101d7000edf9002801f0ab82774a4ff4447303fb7e
:101d800004239b689b6b984748b9734a4ff444738c
:101d900003fb0423002283f8bf2201f098ba6e4ea1
:101da00005f11001314420461bf067f84ff44475eb
:101db00005fb0465ab685b689847684bc5f89432cf
:101dc000032385f8bf3201f082ba00230293624aee
:101dd0004ff4447303fb002393f8c032212b00f22d
:101de000bf87dfe813f022005d007d009300bf0095
:101df000e9005e0187017e02be0257031205350528
:101e000064050b0425045a0481049e04cd0489054d
:101e1000da05230641069806ff064407670794077c
:101e2000b007b007f501690211034b4a4ff4447340
:101e300003fb0023d3f89422484b9a4215d0464a1c
:101e40004ff4447303fb00239b689b684348984707
:101e5000002800f02086404a4ff4447303fb04231b
:101e60003e4ac3f8942200f016be3b4a4ff4447336
:101e700003fb00239b78012b09d0374a4ff44473ae
:101e800003fb0023032283f8c02200f004be03f208
:101e90000f3303fb0023012283f8c02200f0fbbdb7
:101ea0002d4905f532724ff4447303fb00131144be
:101eb00058681cf0abfa48b9274a4ff4447303fb47
:101ec0000423022283f8c02200f0e5bd224a4ff429
:101ed000447303fb04231e2283f8c02200f0dbbd01
:101ee0001d4a4ff4447303fb0023d3f8c80221f0ca
:101ef0002df9002800f0cf85174a4ff4447303fbf7
:101f00000423032283f8c02200f0c5bd124f05f25e
:101f1000c3233b44009300231a461946304610f071
:101f200075ff4ff4447303fb047393f8c232032b21
:101f300040f0b18507f53271294402201cf066faa1
:101f4000002840f0a8854ff4447303fb0473042277
:101f500083f8c02200f09fbda0410020801a060037
:101f600068440020d24a4ff4447303fb0023d3f8a3
:101f7000c80221f0ebf8002800f08d85cc4a4ff420
:101f8000447303fb042393f8d03243b903f544733d
:101f900003fb0423052283f8c02200f07cbdc44a61
:101fa0004ff4447303fb04231f2283f8c02214223e
:101fb000a3f8dc2200f06fbdbd4f05f2c3233b4404
:101fc000009308234ff4d5721946304610f01effd7
:101fd0004ff4447303fb047393f8c232032b40f0b5
:101fe0005a8503f20d3303fb0473062183f8c012f4
:101ff000072183f8c112002183f8851205f533719a
:1020000039444ff4fa601cf001fa012820d0a84aa4
:102010004ff4447303fb042393f8bd325bbb03f519
:10202000447303fb04239b681b6a02a900209847a2
:10203000029bc3f30803b3f5d57f12d09c4a4ff43b
:10204000447303fb04231e2283f8c02200f023bd47
:102050004ff4447303fb04731e2283f8c02200f084
:102060001abd934a03f5b37303fb0423012283f8db
:102070008c2200f010bd022b09d08d4a4ff444731e
:1020800003fb04231e2283f8c02200f004bd884a0b
:1020900003f20e3303fb0423002283f88c2200f0aa
:1020a000fabc834b4ff4447707fb0037b7f8822222
:1020b00005f2c3210b44009301231204372130465b
:1020c00010f0a4fe97f8c232032b40f0e48497f896
:1020d000bd322bb997f8c12287f8c02200f0dbbcd3
:1020e000734a4ff4447303fb04231e2283f8c02277
:1020f00000f0d1bc6e4b4ff4447707fb003797f8e4
:102100008c1297f88522120405f2c3200344009331
:10211000042342ea81722921304610f077fe97f8b5
:10212000c232032b40f0b784d7f8cc0221f00ef86e
:1021300020b11e2287f8c02200f0adbc5c4a4ff4eb
:10214000447303fb042393f8bd32bbbb03f5447314
:1021500003fb04239b681b6a02a900209847029b8b
:1021600013f4701f09d1524a4ff4447303fb042344
:102170001e2283f8c02200f08ebc002b0cdb4c4ae0
:102180004ff4447303fb04233c2283f88522062288
:1021900083f8c02200f07fbc454a4ff4447606fb2a
:1021a0000426c3f3807386f88632d6f8cc021df07d
:1021b000a5fd082386f8c03200f06dbc3c4a4ff400
:1021c000447303fb04231e2283f8c02200f063bc87
:1021d000374f05f2c3233b4400930423354a0121c2
:1021e000304610f013fe4ff4447303fb047393f86e
:1021f000c232032b40f04f8403f20d3303fb047310
:1022000093f8bd32002b49d103f5447303fb0473eb
:102210009b681b6a02a900209847029b002b11dbd8
:10222000234a4ff4447303fb0423b3f8dc32dbb9d5
:102230001f4a4ff4447303fb04231e2283f8c02279
:1022400000f029bc4ff4447202fb047203f0c04357
:10225000b3f1804f14bf0023012382f88632082394
:1022600082f8c03200f017bc11464ff4447202fbf2
:102270000412013ba2f8dc3205f532731944322016
:102280001cf0c4f8002840f00684094a4ff4447357
:1022900003fb0423202283f8c022fce3044a4ff40a
:1022a000447303fb04231e2283f8c022f3e300bf20
:1022b000a041002000003840cc4a4ff4447303fb97
:1022c0000023d3f8c80220f041ff002800f0e38388
:1022d000c64a4ff4447303fb04231f2283f8c02231
:1022e000d9e3c24f05f2c3233b44009303230022ea
:1022f0000221304610f08afd4ff4447303fb04734f
:1023000093f8c232032b40f0c68303f20d3303fb74
:10231000047393f8bd32dbb9394605f110034ff46d
:10232000447606fb0476b268126a1944042090478a
:1023300096f8d0321bb9092286f8c022abe3ab4a2b
:102340004ff4447303fb0423212283f8c022a2e349
:10235000a64a4ff4447303fb04231e2283f8c022d1
:1023600099e3a24f05f2c3233b44009307230022c5
:102370000321304610f04afd4ff4447303fb04730d
:1023800093f8c232032b40f0868303f20d3303fb34
:10239000047393f8bd3273bb03f5447303fb0473fa
:1023a0009b681b6a02a900209847029b13f4604fa8
:1023b00007d04ff4447303fb04731e2283f8c0223a
:1023c00069e31b0c89494ff4447202fb0412a2f822
:1023d00082323bb903f5447303fb0413092283f8eb
:1023e000c02258e3814a4ff4447303fb04230a22ba
:1023f00083f8c0224fe37d4a4ff4447303fb042368
:102400001e2283f8c02246e3784f05f2c3233b44e3
:10241000009301234ff400320321304610f0f6fc04
:102420004ff4447303fb047393f8c232032b40f060
:10243000328303f20d3303fb047393f8bd3203bb05
:1024400003f5447303fb04739b681b6a02a9002015
:102450009847029b13f4590f07d04ff4447303fbc2
:1024600004731e2283f8c02215e3604a4ff44473bc
:1024700003fb04230222a3f882220a2283f8c0224b
:1024800009e35a4a4ff4447303fb04231e2283f8e2
:10249000c02200e3554b4ff4447707fb0037b7f8f1
:1024a000822205f2c3210b44009303231204092165
:1024b000304610f0abfc97f8c232032b40f0eb82b1
:1024c0004a4a97f8bd32002b40f0868005f120067d
:1024d00016444ff4447707fb0427bb681b6a314658
:1024e0000420984797f8d032002b3ad1404ac7f8d9
:1024f0009822b37b9b09012b25d0337a9b0203f4ee
:1025000040607279520002f00602384b4ff4447179
:1025100001fb0431f779b3799b0943ea870303434d
:102520000133307942ead01202329340727a02f0db
:102530000f02a2f109000122824092b202fb03f3d2
:10254000c1f888323fe0f3791b0403f47c12b079c0
:10255000737943ea0023134301339b02c7f888329f
:1025600031e0f37a214a4ff4447101fb0421c3f3b3
:10257000c20003f007031f4a52f820201e4850f8fb
:10258000233003fb02f30a22b3fbf2f3c1f89832c3
:10259000f279b3799b0943ea8203327a920202f418
:1025a0004062134301337279520002f0060230791f
:1025b00042ead01202329340727a02f00f02934044
:1025c0005b0ac1f88832094a4ff4447303fb0423c1
:1025d0000e2283f8c0225ee2044a4ff4447303fbe8
:1025e00004231e2283f8c02255e200bfa041002030
:1025f00040787d01d0f4010074230200bd4a4ff4fd
:10260000447303fb00239a689268d3f898029047ba
:10261000002800f04082b74a4ff4447303fb0423c0
:10262000d3f89822c3f894220f2283f8c02232e212
:10263000b04b4ff4447707fb0037b7f8822205f21e
:10264000c3210b440093022312040721304610f0eb
:10265000ddfb97f8c232032b40f01d8297f8bd32a4
:1026600093b997f8d03233b9062287f8c0221022e6
:1026700087f8c1220fe29f4a4ff4447303fb0423ff
:102680000b2283f8c02206e29a4a4ff4447303fbfc
:1026900004231e2283f8c022fde1964a4ff44473be
:1026a00003fb00239b681b6a02a900209847029b3a
:1026b00013f0007f0bd08f4a4ff4447303fb0423c5
:1026c000012283f88e221d2283f8c022e3e113f455
:1026d000006f884a4ff4447303fb042314bf112294
:1026e0001e2283f8c022d6e1824f4ff4447606fbc7
:1026f0000076b3689b6a08209847012286f8c322b7
:1027000086f8c422002386f8c53205f13003b1688b
:10271000d1f834800821f818c047122386f8c03257
:10272000b9e1744f05f2c3233b4400930123002217
:102730003321304610f06afb4ff4447303fb0473fb
:1027400093f8c232032b40f0a68103f20d3303fb52
:102750000473002283f8c32293f8bd323bb903f51a
:10276000447303fb0473132283f8c02293e1614a8c
:102770004ff4447303fb04231e2283f8c0228ae132
:102780005c4a4ff4447303fb002393f88f32002b11
:1027900000f081814ff4447303fb0023b3f89232bd
:1027a00023f4fb4323f00f031b041b0c3bb14ff43a
:1027b000447303fb00231e2283f8c0226be14d4ac1
:1027c0004ff4447303fb002393f8313013f0040fec
:1027d00007d04ff4447303fb002393f8d232012b4c
:1027e00008d0444a4ff4447303fb0423152283f8b2
:1027f000c02250e103f20f3303fb0023062283f8cb
:10280000c022142283f8c12245e1dff8e8804ff4aa
:10281000447606fb0086012786f8c37286f8c472e8
:10282000002086f8c502b3685b6a9847b3689b6a64
:102830004ff40070984705f18000b3685b6b3a462f
:102840004ff40071404498470c2386f8c03222e1cf
:10285000284f05f2c3233b440093012300220821a3
:10286000304610f0d3fa4ff4447303fb047393f82b
:10287000c232032b40f00f8103f20d3303fb0473cc
:10288000002283f8c32293f8bd323bb903f54473a9
:1028900003fb04730d2283f8c022fce0154a4ff4b9
:1028a000447303fb04231e2283f8c022f3e0114a81
:1028b0004ff4447303fb002393f88f32002b00f096
:1028c000ea8013464ff4447202fb003292f857112b
:1028d00092f856311b0443ea016392f854110b43fa
:1028e00092f8551143ea0123c2f88832142382f882
:1028f000c032d0e0a0410020b74a4ff4447303fb3c
:10290000002393f8d0325bbb02f2c3232b44009325
:10291000012302220621304610f078faae4a4ff425
:10292000447303fb042393f8c232032b40f0b380bb
:1029300003f20d3303fb042393f8bd3223bb4ff4a2
:10294000447606fb0426b368db6a96f8d202984701
:1029500096f8d23286f88132152386f8c0329ae092
:102960009d4b4ff4447202fb003292f8d21205f2f2
:10297000c322134400930223984a42ea012206210b
:10298000304610f043fac9e7934a4ff4447303fb0f
:1029900004231e2283f8c0227de08f4a4ff4447343
:1029a00003fb002393f8d03223bb03f5447303fbee
:1029b000002393f8303013f00f0f07d04ff4447317
:1029c00003fb002393f8d132012b08d0824a4ff445
:1029d000447303fb04231b2283f8c0225be003f251
:1029e0000f3303fb0023002283f88422162283f88e
:1029f000c02250e0012be9d1774a03f20f3303fbe9
:102a0000002393f8443113f0010fdfd04ff44473e7
:102a100003fb002393f8d132012bd7d103f20f33fc
:102a200003fb0023192283f8c02234e0dff8a881d9
:102a30004ff4447707fb0087bb689b6a40209847a8
:102a4000012287f8c32287f8c422002387f8c53201
:102a500005f14003b968d1f83490402108eb030038
:102a6000c847172387f8c0325b4b4ff4447707fb06
:102a7000043797f8841205f2c3221344009301230c
:102a8000574a42eac1720621304610f0bff997f862
:102a9000c232032b2cd0504a4ff4447303fb04235f
:102aa00093f8c0321d2b00f064811e2b40f00f8480
:102ab000494a4ff4447303fb04239b78012b00f035
:102ac000b581002b40f00384434a4ff4447303fb69
:102ad00004239b689b6b9847002840f0ae813e4ad8
:102ae0004ff4447303fb0423002283f8bf22eee378
:102af000002287f8c32297f8bd321bb9182287f845
:102b0000c022c8e7344a4ff4447303fb04231e2257
:102b100083f8c022bfe7304a4ff4447303fb00231d
:102b200093f88f32002bb6d04ff4447303fb00238d
:102b3000b3f8923223f4fb4323f00f031b041b0c66
:102b40003bb14ff4447303fb00231e2283f8c022e1
:102b5000a1e7214a4ff4447303fb002393f8843226
:102b6000012b14d01c4a4ff4447303fb002393f849
:102b70004d3013f0020f25d04ff4447303fb0023b4
:102b8000012283f88422162283f8c02283e703f20d
:102b90000f3303fb002393f8503003f00f03012b96
:102ba00008d00d4a4ff4447303fb00231d2283f821
:102bb000c02270e703f20f3303fb00231a2283f8cd
:102bc000c02268e7044a4ff4447303fb00231d222c
:102bd00083f8c0225fe700bfa04100200100b703d7
:102be00001ffff00c14f05f2c3233b4400930223c2
:102bf000bf4a0621304610f009f94ff4447303fb35
:102c0000047393f8c232032b7ff445af03f20d3304
:102c100003fb047393f8bd3203bb03f5447303fb5a
:102c200004739b689b68b348984770b14ff444762f
:102c300006fb0476af4bc6f89432b3681b6b0120d9
:102c400098471b2386f8c03225e7a84a4ff44473ff
:102c500003fb04231e2283f8c0221ce7a34a4ff47f
:102c6000447303fb04231e2283f8c02213e79f4a08
:102c70004ff4447303fb00239b689b689e4898476e
:102c800078b19a4b4ff4447606fb04369a4bc6f85b
:102c90009432b3681b6b012098471b2386f8c0321f
:102ca000f9e6924a4ff4447303fb04231e2283f88f
:102cb000c022f0e68d4f05f2c3233b44009301236d
:102cc0004ff400721021304610f0a0f84ff4447316
:102cd00003fb047393f8c232032b7ff4dcae03f2e0
:102ce0000d3303fb047393f8bd323bb903f5447312
:102cf00003fb04731c2283f8c022cce67b4a4ff40a
:102d0000447303fb04231e2283f8c022c3e6774fdb
:102d100005f2c3233b44009300231a4607213046a3
:102d200010f074f84ff4447303fb047393f8c23249
:102d3000032b7ff4b0ae03f20d3303fb04731d22ab
:102d400083f8c022a7e6694b4ff4447606fb0036b1
:102d5000d6f8cc021cf0d2ff002386f8c0329ae6e7
:102d6000624a4ff4447303fb0023002283f8c0221d
:102d700091e64ff4447303fb0423002283f8da2224
:102d800093f8bc3283b1594a4ff4447303fb0423d4
:102d90009b68db6b83b19847544a4ff4447303fb41
:102da000042383f88d0207e0504a4ff4447303fb79
:102db0000423002283f88d224c4a4ff4447303fb12
:102dc0000423d3f888124ff40070c3f8f402c3f858
:102dd000f812c3f8fc02c3f80013c3f80403c3f8e5
:102de00008130121c3f8e412c3f8e812c3f8ec1287
:102df00005f53d752a44c3f8f0229b788b420bd031
:102e00003a4a4ff4447303fb0423012283f8be22a1
:102e1000042283f8bf225ae2344a4ff4447303fb7e
:102e200004234ff0ff32c3f8cc22e9e702f110018e
:102e3000294420461af021f849e230492944204625
:102e40001af01bf843e247b1284a4ff4447303fbde
:102e5000002393f8c232032b22d0244a4ff4447348
:102e600003fb04239b78022b00f0fb80012b00f076
:102e70001e81002b40f02b821c4a4ff4447303fb4d
:102e800004239b689b6b9847002840f02082174ad8
:102e90004ff4447303fb0423102283f8bf2216e28d
:102ea0004ff4447303fb00239b78012b11d00f4a8e
:102eb0004ff4447303fb042393f88e3203b3ff23d0
:102ec0003b724ff4447303fb04230e2283f8bf22aa
:102ed000fde14ff4447505fb0025d5f8cc021cf04c
:102ee0000dff4ff0ff33c5f8cc32e0e7a0410020e2
:102ef0000101b9030075190380f0fa02b041002006
:102f0000bf4a4ff4447303fb04239b7883b94ff407
:102f1000447303fb04239b689b6b984740b9b84af2
:102f20004ff4447303fb0423102283f8bf22cee145
:102f300002233b72b24a4ff4447303fb042393f819
:102f4000863213b97b695b027b617b7f012b12d0d8
:102f5000ab4a4ff4447303fb042393f88d32002be8
:102f60003ad0ff233b724ff4447303fb04230e2239
:102f700083f8bf22abe1a24a4ff4447303fb04235e
:102f8000012283f8c422bb6993421ad012233b77f3
:102f90009b4a4ff4447303fb0423012283f8c522a8
:102fa000974a4ff4447303fb04239b78022b34d0dd
:102fb000934a4ff4447303fb0423072283f8bf2290
:102fc00085e111233b778e4a03f2ff2303fb0423a1
:102fd000002283f8c522e3e7894a4ff4447303fbd8
:102fe0000423002283f8c422bb69012b0ad01923d1
:102ff0003b77834a4ff4447303fb0423012283f895
:10300000c522cde718233b777d4a03f53e7303fbca
:103010000423002283f8c522c2e74ff4447303fb64
:10302000042393f8d032012b08d0754a4ff444732f
:1030300003fb0423072283f8bf2248e103f20f3386
:1030400003fb042393f8da32012beed103f20f33a2
:1030500003fb0423002283f8da22052283f8bf222f
:1030600035e14ff4447303fb042393f8d032012b72
:1030700040f02d814ff4447303fb042393f8d932bd
:10308000002b00f024814ff4447303fb042393f8d6
:10309000da32002b40f01b814ff4447303fb04230e
:1030a000012283f8da22052283f8bf220fe1544a75
:1030b0004ff4447303fb0423d3f8cc02b0f1ff3f79
:1030c00011d020f043f8002800f001814c4a4ff461
:1030d000447303fb04234ff0ff32c3f8cc220622d3
:1030e00083f8bf22f3e005f533714ff4447303fb1b
:1030f0000423114458681bf089f9012840f0e78047
:103100003f4a4ff4447303fb04230e2283f8bf228b
:10311000dde03b4b4ff4447707fb0037002287f894
:10312000c322b7f8820297f8da22d20305f2c32548
:103130002b440093022342ea0042052130460ff05f
:1031400065fe97f8c232032b40f0c18097f8bd327c
:1031500083b997f8da32012b08d0294a4ff4447327
:1031600003fb0423072283f8bf22b0e0042287f880
:10317000bf22ace0224a4ff4447303fb0423102225
:1031800083f8bf22a3e01e4b4ff4447707fb0037c0
:10319000002287f8c322b7f8822205f2c3252b4408
:1031a0000093012312040d2130460ff02ffe97f8f3
:1031b000c232032b40f08b8097f8bd32b3b9bb68a5
:1031c0001b6a03a900209847039bc3f34323032be7
:1031d00003d0102287f8bf2279e0094a4ff44473e4
:1031e00003fb0423042283f8bf2270e0044a4ff457
:1031f000447303fb0423102283f8bf2267e000bf5f
:10320000a0410020bf4b4ff4447707fb0037b7f8cd
:10321000822205f2c3252b440093022312040721c6
:1032200030460ff0f3fd97f8c232032b4fd197f8d9
:10323000bd3243b9bb681b6a03a900209847082325
:1032400087f8bf3243e0af4a4ff4447303fb0423d3
:103250000e2283f8bf223ae0002f43d0b86901283c
:10326000a84a4ff4447303fb04239b685b6a0cbfba
:10327000002080b29847a34b4ff4447808fb0438f1
:10328000d8f808309b6a4ff400709847012388f8fb
:10329000c332b969d8f808305b6b7a7f4902386964
:1032a0009847092388f8bf327a69397f954f05f22c
:1032b000c3253d440095012330460ff0a7fd4ff490
:1032c000447303fb047393f8c232032b13d08d4b6a
:1032d0004ff4447202fb0434012384f80c3305b02c
:1032e000bde8f083874a4ff4447303fb00230e22aa
:1032f00083f8bf22ebe74ff4447303fb047300220f
:1033000083f8c32293f8bd323bb94ff4447303fbf7
:1033100004730a2283f8bf22d9e77a4a4ff4447330
:1033200003fb04230e2283f8bf22d0e7754a4ff433
:10333000447303fb002393f88f32002bc7d04ff464
:10334000447303fb0023b3f8923223f4fb4323f0ce
:103350000f039bb23bb14ff4447303fb00230e22d7
:1033600083f8bf22b3e767b1bb69012b654a4ff40d
:10337000447303fb00238cbf0b220c2283f8bf2273
:10338000a5e7604a4ff4447303fb00230e2283f841
:10339000bf229ce75b4f05f2c3253d440095022305
:1033a00000220c2130460ff031fd4ff4447303fb33
:1033b000047393f8c232032b89d14ff4447303fb97
:1033c000047393f8bd323bb94ff4447303fb0473a9
:1033d0000c2283f8bf227ae74a4a4ff4447303fb76
:1033e00004230e2283f8bf2271e7464b4ff4447743
:1033f00007fb0037b7f8822205f2c3252b44009360
:10340000012312040d2130460ff000fd97f8c2325f
:10341000032b7ff45caf97f8bd326bb9bb681b6ab6
:1034200003a900209847039b13f4807f3ff44faf1c
:103430000d2287f8bf224ae7324a4ff4447303fb58
:1034400004230e2283f8bf2241e7dff8b88005f29b
:10345000c3254544009500231a46072130460ff046
:10346000d5fc4ff4447303fb048393f8c232032b5f
:103470007ff42daf00233b724ff4447303fb0483ae
:103480000f2283f8bf2222e71e4a4ff4447303fb46
:1034900000239b7873b94ff4447505fb0025ab6896
:1034a0009b6b9847184b1870ff233b720f2385f8ce
:1034b000bf320ce7134b4ff4447808fb003800226e
:1034c00088f8c322b8f8822205f2c3251d4400956e
:1034d000012312040d2130460ff098fc98f8c232f7
:1034e000032b7ff4f4aeff233b720f2288f8bf2238
:1034f00098f8bd32002b3ff4eaae034b00221a705d
:10350000e5e600bfa04100207e620020b7b17968e7
:10351000c8b22d4b4ff4447202fb0432d2f8b832d9
:1035200003eb0013da68914214d0d6f8ac322bb119
:103530001a6ac6f8ac2200221a621a70234b1b7852
:10354000a3b1214a4ff4447303fb0423042283f8fc
:10355000bf22bce65d68002de7d097f908009a68a5
:10356000f968003018bf0120a847dee7174b012299
:103570001a70154a4ff4447303fb0423102283f896
:10358000bf22a4e600232b622b70d6f8ac527db18b
:103590002b6ac6f8ac322a79d8f8b83203eb02139a
:1035a0005f68002feed09a68e9680120b847e9e724
:1035b000054a4ff4447303fb0423002283f8be2220
:1035c00083f8bf2283e600bfa04100207e62002076
:020000040000fa
:1035d0002de9f04f8db00f210a201ef05df9029009
:1035e00010f0010f40f06e85029b13f0020f40f0c7
:1035f0008d850db0bde8f08fd9f8187007f1100374
:103600000693fb6809933b690a9300228df82c20ee
:1036100006238df82d302b0a43ea0523adf82e3012
:103620000c2109a818f0e0fac3439bb2b9f8222094
:1036300012f0040f33d02a464146484615f00afee0
:103640000390039b002b40f0ad86404618f0eefc43
:1036500098f80cb04fea1b1b4fea8b030593d9f87f
:103660001cb0bbf80220002a00f09f86fe89bb89af
:103670001e44bbf800301e445640b6b2cc4bd3f8c3
:1036800000c0bcf1000f00f09386d9f828e0c94bc8
:103690001b68049300239a46194610460fe01a4609
:1036a0002946404618f0a0fa0390cae7b4f8722001
:1036b00082422fd001331bb2194663452fd2049aa0
:1036c00052f82140002cf5d094f876200b2af1d046
:1036d00094f877100129edd8a16c09b18e45e9d194
:1036e000002ae3d0b4f87220b242e3d1dbf8001034
:1036f000226e9142ded1216cfa689142dad1012129
:1037000084f87710c4f848e0069a20461cf063fe5f
:10371000a24621e0baf1000f08bfa246cae7baf1fb
:10372000000f7dd0fb68caf8403001218af877107d
:10373000caf848e0069a50461cf04dfeaaf872609e
:10374000bbf80030aaf86030bbf80230aaf862304b
:10375000daf80030caf81030d9f8102093890599aa
:103760005b1a938198f80d40d8f80870d8f8046077
:103770009af83f3013f0400f56d19af875306ff336
:1037800000038af875309af87630002b64d0012b4c
:1037900000f0a9801435059aa5eb020b1ffa8bfbec
:1037a000abf1140292b2059214f0010206921abf14
:1037b000abf1130b1ffa8bfbddf814b014f0020f02
:1037c0001cbf0bf1010b1ffa8bfbdaf81c50daf867
:1037d00020209542c0f0d780daf81810daf81400eb
:1037e000091aaa1a8a1a92b20492daf85820b51a5b
:1037f000bbf1000f00f0e480049a002a00f0ce80b4
:10380000002dc0f2c5809542c0f0e0805a46049970
:103810008a1a8d42c0f2da80954240f3d780bde02b
:103820006ff00e0100f04abc00238af879309af854
:103830003e3013f0020fa0d11ef0baf8baf8702093
:103840005d4b1b6803fb02f35c4aa2fb032300eb06
:103850009310caf8240090e714f0040f2dd114f04f
:10386000100f2fd114f0020f38d00136caf858606b
:10387000404614f0e9f8aaf86a0050461bf086ffab
:1038800001221221504603f05bfb02238af87630b6
:10389000baf87a20039b1a4000f08d85daf87c4054
:1038a000002c00f08a85daf88030d9f82810baf9af
:1038b0003c00a047022100f001bc002150460ef060
:1038c00067fee5e7caf8547000220421504603f071
:1038d00037fb002150460ef05bfed9e70021504631
:1038e0000ef056fed4e714f0040fd1d114f0100fef
:1038f00000f06585daf85450af422ad114f0020f77
:10390000c6d00136caf85860b8f80e30aaf86e3042
:10391000aaf86430404614f097f8aaf86a005046b6
:103920001bf034ff01221021504603f009fb032352
:103930008af876309af83f3013f0400f13d19af896
:103940003e306ff341038af83e304ff480730393a7
:103950009ee7caf8547001220421504603f0f0faa1
:10396000caf8545094e71ef023f8baf87020124bae
:103970001b6803fb02f3114aa2fb032300eb931322
:10398000caf82430dbe7521b013a92b204922ce7ca
:103990005a4605eb0b0100293ff739af14f0040f2d
:1039a0007ff476af01221021504603f0c9fa6fe789
:1039b00008600020046000200c600020d34d6210dd
:1039c00025b1002deadb049a9542e7da14f0060fe0
:1039d00011d114f0100f3ff45baf023b072b00f244
:1039e000a680dfe813f0190024002400240024003e
:1039f000a4002400460214f0040f08d09af83f30c7
:103a000043f002038af83f304ff400630393002130
:103a100050460ef0bdfd3be7daf8543007939f4265
:103a20001fd103238af876304ff480730393daf8ba
:103a30001010daf808305a1a1ed4daf854003b1a7b
:103a40009b1a002b28ddbaf8742002f40172042ab4
:103a500001d1012b17d000221021504603f070fa3b
:103a600016e7caf8547001220421504603f068faa0
:103a7000079bcaf854300be7daf80430daf8000094
:103a80001b1a1a44d9e70130caf854009af8753065
:103a900043f002038af87530daf85430daf80c2073
:103aa000881a914280f0d480daf80420daf8001005
:103ab000521afb1a0344d3180793002b08dddaf8d7
:103ac0000430daf800209b1a079a9a4240f2d1801b
:103ad000daf83830002b40f03081daf80c20daf8d0
:103ae00008309a4200f06781b8f80e30baf86e20bc
:103af0009a4238bfaaf86e30daf85420b8f80e307f
:103b00003b449b1a9bb2baf8641031b92bb19af8b6
:103b10003e1041f040018af83e10aaf864309af84d
:103b20007630042b00f07e81062b00f09a8114f091
:103b3000200f7ff4adae9af87620a2f10803dbb235
:103b4000012b7ff6a5ae062a3ff4a2ae059a002a05
:103b50003dd0002d40f39881059b2b44049a93425d
:103b600002dd531b9bb2059398f80c301b0908eb40
:103b700083030893daf81c10daf81830059a2a44ff
:103b80000a44934280f00d825a1a0132521b00f10e
:103b9000fa811ffa82f801240094434608a80246dd
:103ba0002944484617f0d2fb0490059aa2eb08037b
:103bb00000949bb208aadaf81410484617f0c6fb26
:103bc000049b034498b2059b834200f0f781bbf14c
:103bd000000f19d09af87630033bdbb2022b84bf7a
:103be000daf81c30caf820309af83e3013f0100f83
:103bf00040f013829af83e3043f010038af83e30ca
:103c000013f0080f00f00f82069b002b3ff440ae2c
:103c1000daf8583001335e44b3427ff439aecaf863
:103c20005830039b43f4806293b203939af83f3079
:103c300043f004038af83f309af87630023b032bb6
:103c400000f21e82dfe813f003020c0215022d02bf
:103c5000fb1a03440793002b07dddaf80430daf887
:103c600000001b1a0798984203d991423ff435afe0
:103c70002ee740f2dc53caf834301df099fedaf832
:103c80003420cc4b1b6803fb02f3cb4aa2fb03237b
:103c900000eb9313caf838309af83e306ff34513af
:103ca0008af83e30daf80c20079b13441946caf80c
:103cb0000c30daf810309a420ed899421cd9cb1a3f
:103cc000daf854201344caf85430caf81010daf85d
:103cd0000430994224d313e0daf80420daf8000023
:103ce000121a1344994207d9cb1adaf85420134414
:103cf000caf85430caf81010daf80430994205d3e3
:103d0000daf800209a1a8a1acaf80c20daf8102079
:103d10009a4205d3daf800105b1ad31acaf81030a9
:103d20009af87630032b02d0082b7ff4d6ae039b93
:103d300043f0040293b20393cfe61df039fedaf8a4
:103d40003830c31a002bfff6c8aedaf834305b0007
:103d5000b3f57a4f28bf4ff47a43caf834301df0d8
:103d600027fedaf83420934b1b6803fb02f3924ad8
:103d7000a2fb032300eb9313caf83830daf81010d3
:103d8000daf80c20881adaf854301b1acaf85430c2
:103d9000914207d2daf80410daf80000091a5b1a27
:103da000caf85430caf810209af83e3043f0800325
:103db0008af83e3091e69af83f3013f0010f19d19e
:103dc00013f0400f06d19af83e306ff341038af8a2
:103dd0003e3089e61df0ecfdbaf87020754b1b688b
:103de00003fb02f34ff47a72b3fbf2f30344caf815
:103df0002430e8e7daf854309f427ff475ae9af841
:103e0000743013f0040f3ff46fae9af83e306ff346
:103e100041038af83e309af83f306ff300038af886
:103e20003f3061e6974204d014f0200f3ff48eae8d
:103e30002ee59af8743013f0040ff5d01df0b8fd9c
:103e40005c4b1a6841f2883303fb02f34ff47a7239
:103e5000b3fbf2f30344caf8303005238af8763016
:103e6000e2e797427ff414ad002150460ef090fb3c
:103e70000ee5daf8543001339f427ff409ad00219a
:103e800050460ef085fb03e598f80c301b09c5eb96
:103e90008303434408932a4493b2049a9a4228bf66
:103ea0001a461546daf81c10daf818308a189342c8
:103eb00059d25b1a03f101081ffa88f30124009418
:103ec000049308aa484617f041fa0590049beb1aa0
:103ed00000949bb208aadaf81410484617f036fa94
:103ee000059b034498b2a5eb0808daf81430434464
:103ef000a8427ff46caedaf858102944caf858107a
:103f0000caf81c309af87620033ad2b2022a04d8b2
:103f1000039a42f4007292b20392daf85c00b0f1b4
:103f2000ff3f3ff454ae401bcaf85c00baf868206b
:103f3000121823d400283ff74aae1144caf858108b
:103f40001344caf81c30daf81820934206d9daf87c
:103f50001410521ad2431344caf81c304ff0ff33e6
:103f6000caf85c3033e6012300932b4608aa484682
:103f700017f0ecf9daf81c302b44b9e74ff0ff33b7
:103f8000caf85c3023e6681edaf814209b1ac01abf
:103f900001230093059b08aa0144484617f0d6f96f
:103fa00011e601230093059b08aa2944484617f00f
:103fb000cdf908e60c600020d34d6210daf85c30d1
:103fc000b3f1ff3f13d09d4217d2059a5119baf8a9
:103fd0006820d018814204d88b4202d8431b9bb280
:103fe0000593059baaf86830caf85c50efe5caf85b
:103ff0005c50059baaf86830e9e5baf868201a44d5
:104000000598411991427ff6e2ad95423ff6dfad4a
:10401000eb1a1844aaf86800d9e50122102150468d
:1040200002f08efff0e5dbb243f008038af83e3081
:104030001df0befca74b1a68642303fb02f34ff488
:104040007a72b3fbf2f30344caf82c30dce509239f
:104050008af8763001221121504602f071ff17e4f0
:1040600008238af876309af8753013f0010f07d0dc
:104070000ee4daf854309f4208d006238af87630ee
:1040800001221021504602f05bff01e400221021c2
:10409000504602f055ff002150460ef079fafff726
:1040a000f7bb00221021504602f04aff0021504683
:1040b0000ef06efafff7ecbb6ff00d010a224846d6
:1040c0001cf0b2fd0a201ef08dff814600283ff44f
:1040d0008baab9f82050132deed9d9f81c8098f886
:1040e0000c301b09042b0bd9b5eb830f0bdbb9f894
:1040f000223013f4007f3ff47faa6ff00e01dde75a
:104100006ff00d01dae76ff00d01d7e7724b1b6816
:10411000002b3ff46eaa00252b46dff8c091dff894
:10412000c0a1dff8b481e7e01df042fca36ac01a29
:104130000028a8bf1026f5e01df03afce36ac01a7b
:104140000028c0f2f58094f87630052b00f06281eb
:10415000102687f001023146204602f0f1feefe022
:104160001df026fc236bc01a0028c0f2e680012255
:104170001421204602f0e4fe002120460ef008fa49
:10418000b2e094f83e6006f001060121204614f0ea
:10419000a3fa94f83e3043f0010384f83e304ff424
:1041a00080520021204619f0fcfe002e40f09c8039
:1041b00094f83e306ff3000384f83e300a2384f80d
:1041c000763091e01df0f4fb636ac01a0028c0f25b
:1041d0008b8094f876104b1e082b00f28380dfe86a
:1041e00003f00541556081688181700094f8783052
:1041f000032b40f20381042384f87830354b1a688e
:104200004ff47a7303fb02f3aafb03239b091b0100
:1042100023650221002694f87830013384f8783041
:10422000236d5b0023652069e268831a9bb290428c
:1042300004d260682768c01b03449bb2606dc01a3b
:104240006065b4f864000344a4f86430226100227d
:10425000204602f075fe002e46d0002120460ef0ca
:1042600097f941e094f87830022b40f2c98094f835
:104270003e6006f001031e46002b18bf1421002fdc
:10428000c9d10122204602f05bfee4e794f87830c1
:10429000042b40f2b780042384f8763011210026e5
:1042a000ede794f87830042b40f2ae80142101261b
:1042b000e5e794f87830042b40f2a8801421012619
:1042c000dde794f87830042b40f2a2801421012617
:1042d000d5e700bf0c6000200860002004600020cb
:1042e000d34d6210002e5ad101352db22b46d8f88d
:1042f00000209542bff47da9d9f8002052f8234050
:10430000002cf1d094f876300b2bedd094f83e30a1
:1043100013f0c0061abfdf091026002713f0040fa0
:104320007ff402af94f83e3013f0080f7ff404af2f
:1043300094f87630052b3ff413af002e7ff409afcd
:1043400094f83e3013f0020f7ff43caf94f83f3006
:1043500013f0400fc8d094f87630032bc4d11df071
:1043600027fb636ac01a0028bedb94f8792094f812
:1043700084309a423ff405af02221021204602f019
:10438000dffd1df015fbb4f87020274b1b6803fb05
:1043900002f3aafb032300eb93106062a4e731460b
:1043a00000266ce76ff0090188e66ff00e0185e6e4
:1043b0006ff00e0182e6022180e602217ee614f013
:1043c000020f3ff465aa0136caf85860b8f80e30fb
:1043d000aaf86e30aaf86430404613f035fbaaf80c
:1043e0006a0050461bf0d2f901221221504602f019
:1043f000a7fd02238af87630fff74aba022109e7bf
:10440000122107e7102105e7112103e7102101e739
:104410001121ffe61df0ccfa236bc01a0028bff66d
:0c442000a6ae102695e600bf0c60002040
:020000040000fa
:10442c002de9f04f2ded028b9bb00f2120201df0bc
:10443c002dfa002800f0b3867d4b1b68002b40f34f
:10444c00ae867c4c00267c4f9fed7c8ab1e3d4f881
:10445c00c4305d6894f8d1202ab3227c012a42d062
:10446c00022a61d1b4f93830b3f1ff3f25d00023d3
:10447c00734a4ff40071b4f938001cf07dfdd4f888
:10448c00bc200221b4f9380010f024f930b9d4f86a
:10449c00c4301b681b686b49284698470621204688
:1044ac0019f0d6fb7ee31b681b68674928469847c2
:1044bc000121204619f0ccfb74e304f18002618adf
:1044cc00012014f001fa2087b0f1ff3fcfd1d4f8ce
:1044dc00c4301b681b685d4928469847012120465b
:1044ec0019f0b6fb5ee304f18002618a01201ff033
:1044fc0078fba087b0f1ff3f0ad00023544a4ff459
:10450c0080711cf07bff0321204619f0a1fb49e3cd
:10451c00d4f8c4301b681b684e49284698470121c3
:10452c00204619f095fb3de31b681b684a49284659
:10453c0098470121204619f08bfb33e3d4f8c430a3
:10454c00d3f804a03b4be31adb1003ebc30203ebe1
:10455c004203c3eb432303eb8343c3f10009dff8ae
:10456c0008b194e0d4f8c4301b681b683b49504632
:10457c0098470421204619f06bfb13e3b4f93c0077
:10458c001df08cfd0ee30133c4f8943028461df069
:10459c00c9fd02460b46d4e9080109f081fdc4e9c6
:1045ac000801b8f1000f19dba36ae26a511c8b42b7
:1045bc0030d0934221dc616b01f1010161632bd09e
:1045cc0021e0d4f8c4301b685b68254950469847f5
:1045dc00236b013ba26a1344236391e0c8f10003ef
:1045ec00a3621df0dff9c4f88c00002384f8cc30f2
:1045fc000421204619f02cfbd6e75b1a226b1344de
:10460c002363a36ae3620c3dadb2002d3fd04ff0a3
:10461c00340834e0934206d1d4f8c4301b681b68cc
:10462c00104950469847a36ae26a9342ebdde9e7ea
:10463c00bc600020f0560020885d002000007a4409
:10464c008b320200b8b7000070b7000094b70000be
:10465c0075320200e0b7000004b800001cb800007e
:10466c003cb8000068b80000a0b8000042463946cb
:10467c00b4f93c0010f093fd343dadb23db1332d97
:10468c00f4d82a463946b4f93c0010f088fdb4f948
:10469c003c001df05ff905460b287ed90c223946eb
:1046ac00b4f93c0010f07bfd0c287ff45baf3b6849
:1046bc004fea136848ea03681a0202f47f0248ead8
:1046cc0002081b0a03f47f4348ea0308c4f8288055
:1046dc00d4f89430002b7ff456afb8f1000ffff6ee
:1046ec004daf0123c4f89430d4f8c4301b685b6818
:1046fc004a46594650469847a26a002a7ff461af51
:10470c00a36ae36205a9b4f93c0010f0cffcb4f93c
:10471c003c001ef0e7ff1df0b1ff069dd4f8c4303d
:10472c001b68628a0292020e0192c0f30742009249
:10473c00d3f80480c0f30723c2b2bc495046c0472b
:10474c00d4f8c4301b68bdf8582002922a0e01928e
:10475c00c5f307420092d3f80480c5f30723eab2ed
:10476c00b3495046c0476564bdf85830a4f864306e
:10477c001df018f9c4f88800c4f8a800a36ac4f89e
:10478c009c30d4f89430c4f89830236bc4f8a03023
:10479c00b4f93c001df082fc79e7d4f894304bb9a5
:1047ac0094f8cf30012b40f0fd810421204619f004
:1047bc004ffaf7e11df0f6f8d4f8a830c31a2268c6
:1047cc009342edd9d4f89420d4f898309a4212d16f
:1047dc00d4f8c4301b681b689649504698471df0a6
:1047ec00e1f8c4f88c00002384f8cc300421204676
:1047fc0019f02efad4e70021204608f0adffcfe7e0
:10480c00b4f93c001df0a6f838b994f8cf304bb190
:10481c000921204619f01cfac4e1b4f93c001df042
:10482c003dfcbfe10521204619f012fabae194f8db
:10483c00cd30002b00f0b580b4f93c001df08af8a7
:10484c00002840f0b68094f8cc305a1c84f8cc2068
:10485c000a2b00f2b3808021b4f93c001ff05afa05
:10486c00002800f09f81e36a5b421a0e42ea036261
:10487c00190201f47f010a431b0a03f47f4313431b
:10488c003b6000257d60bd608023fb603d61d4e909
:10489c0008011df0cffb020e42ea0062030203f492
:1048ac007f031a43030a03f47f4313437b611df018
:1048bc00a1f8d4f88c10d4f88830c91ab1fbf0f3f5
:1048cc001a0e42ea03624fea032c0cf47f0c42ea04
:1048dc000c024fea132c0cf47f4c42ea0c02ba6126
:1048ec0000fb131307ee103ab8ee477a27ee087a5e
:1048fc0007ee900af8ee676ac7ee267a67ee887aba
:10490c00fceee77a17ee903a1a0e42ea03621902ad
:10491c0001f47f010a431b0a03f47f431343fb6139
:10492c00236b1a0e42ea0362190201f47f010a4357
:10493c001b0a03f47f4313433b62636b1a0e42ea78
:10494c000362190201f47f010a431b0a03f47f433b
:10495c0013437b62e36a1a0e42ea0362190201f402
:10496c007f010a431b0a03f47f431343bb62fd62be
:10497c003d6334223946b4f93c0019f05cff4ff02a
:10498c004c084246294605a81ef006fe424605a9db
:10499c00b4f93c0019f04fffb4f93c0009f0befd2e
:1049ac0000e10221204608f0d7fe012384f8cd3027
:1049bc0042e7b4f93c001df071fbf3e009212046fd
:1049cc0019f046f9eee094f8cf30012b29d0b4f968
:1049dc0038001df0d3f8002800f0e48038220021c4
:1049ec0005a81ef0d9fd05a9b4f9380016f0f2fba4
:1049fc0004f1400c05ad0fcdace80f000fcdace8c9
:104a0c000f000fcdace80f0095e803008ce8030015
:104a1c000721204619f01cf9b4f938001cf0c8fd28
:104a2c00c0e00921204619f013f9bbe0184e010033
:104a3c004c4e010088b80000d4f8c430d3f8048080
:104a4c00b4f938001ef0cffd0546002863d0a36ae8
:104a5c00002b49d1bb4be31adb1003ebc30203eb76
:104a6c004203c3eb432303eb8343d4f8c420126803
:104a7c00d2f804905a42b4494046c8471cf092ff01
:104a8c00c4f88800c4f8a800a36ac4f89c30b4f930
:104a9c0038001ef00ffe1df0f1fdd4f8c4301b6879
:104aac00628a0292020e0192c0f307420092d3f87e
:104abc000490c0f30723c2b2a4494046c847d4f8b7
:104acc00c4301b68b4f86420029294f84720019219
:104adc0094f846200092d3f8049094f8453094f85a
:104aec0044209b494046c847a36a0133a362d4f8cb
:104afc0094200132c4f89420e36228461df012fb86
:104b0c0002460b46d4e9080109f0cafac4e90801c7
:104b1c004ff034081be0b4f938001cf049fd20b903
:104b2c00b4f938001ef053fbc8b11cf03bffc4f8bd
:104b3c008c000821204619f08bf833e042463946a8
:104b4c00b4f9380011f034fe343dadb23db1332d23
:104b5c00f4d82a463946b4f9380011f029fea36a74
:104b6c0063b994f8cf30012b1cd10821204619f0e1
:104b7c006ff81cf017ffc4f88c0013e01cf012ff48
:104b8c00d4f8a830c31a22689342ead900212046ef
:104b9c0008f0e2fde5e794f8cd30bbb309212046df
:104bac0019f056f80136d8346a4b1b68b34240f3ff
:104bbc00f68294f8ce30012bf4d0023b102b00f28d
:104bcc00d38201a252f823f05b4400004945000057
:104bdc000d4800003b480000d3490000454a000046
:104bec00a34b0000294c0000c74c0000f34c000004
:104bfc00db4e0000b74f00003d5000004f5100004d
:104c0c00f54d00009d50000065510000022120462a
:104c1c0008f0a2fd012384f8cd30bfe7d4f8c430ee
:104c2c00d3f80480237c012b29d0022b2cd0454bac
:104c3c00e31adb1003ebc30203eb4203c3eb432386
:104c4c0003eb83435d42d4f8c4301b685b682a468f
:104c5c00414940469847204619f056fd94f8d1300a
:104c6c00012b19d0d4f8c4301b685b682a463b4929
:104c7c00404698470121204618f0eaff92e7b4f924
:104c8c003c0019f0d3ffd2e7b4f938001af0aafeb1
:104c9c004ff6ff732387cae794f8cf30002be1d18e
:104cac00d4f8c4301b685b682a462d4940469847a7
:104cbc000221204618f0ccff74e7d4f8c8001df090
:104ccc00d0ff032808d10b21204618f0c1ff1cf09f
:104cdc0069fec4f8ac0065e704f14401d4f8c800df
:104cec001af0e5f8efe7d4f8c4305d6894f8cf20fb
:104cfc00012a17d0d4f8c8001df0b3ff03281bd02d
:104d0c0094f8443003f0f003e02b2dd1237c012bdd
:104d1c0065d0237c022b7ff445af0c21204618f084
:104d2c0097ff3fe71b681b680e49284698470121ef
:104d3c00204618f08dff35e70022a267a4f87c20ee
:104d4c00e4e700bff0560020a0b80000184e0100a8
:104d5c004c4e0100bc600020ccb8000030b9000003
:104d6c00fcb8000050b9000004f1780204f14401d1
:104d7c00d4f8c80014f09afec0b1d4f8c4301b6843
:104d8c0094f87d20039294f87c20029294f87b2076
:104d9c00019294f87a200092d3f8048094f8793038
:104dac0094f87820c6492846c047afe71cf0fafdb6
:104dbc00d4f8ac30a0eb03081cf01cfe00eb800018
:104dcc0080457ff6efaed4f8c4301b681b68bd4934
:104ddc00284698471cf0e6fdc4f8ac00e2e610212a
:104dec00204618f035ff94e7d4f8c4305d6804f120
:104dfc004402618a01201ef0f9fea087b0f1ff3f4a
:104e0c0059d00023b04a4ff480711cf0f7fae268d5
:104e1c000521b4f93c0005f0c3fb30b9d4f8c4301b
:104e2c001b681b68a9492846984702220621b4f939
:104e3c003c0005f0b5fb30b9d4f8c4301b681b68d6
:104e4c00a34928469847d4f8c810b4f93c0017f089
:104e5c0011fd05a9b4f93c0010f028f9bdf85a3041
:104e6c00a4f87e30d4f8c4301b681b6899492846d6
:104e7c009847d4f8c4301b68628a029294f8472091
:104e8c00019294f846200092d3f8048094f84530af
:104e9c0094f8442090492846c0471121204618f028
:104eac00d7fe1cf07ffdc4f88800d4f8843003448e
:104ebc00c4f8903076e6d4f8c4301b681b68874978
:104ecc00284698470121204618f0c2fe6ae6d4f81d
:104edc00c4305d680022618a01201df081fe60876c
:104eec00b0f1ff3f4cd000237d4a4ff400711cf011
:104efc0043f8d4f88030002b4ed104f14403002247
:104f0c000121b4f93a0019f06ff84ff48063a4f85a
:104f1c007e30d4f8c4301b681b686e49284698470d
:104f2c00d4f8c4301b68628a029294f8472001922c
:104f3c0094f846200092d3f8048094f8453094f805
:104f4c00442068492846c0470d21204618f080feb1
:104f5c00d4f8b8200321b4f93a000ff0bbfb30b9f8
:104f6c00d4f8c4301b681b68584928469847b4f9d4
:104f7c003a001bf0eaff1cf015fdc4f8ac0011e67a
:104f8c00d4f8c4301b681b68574928469847012140
:104f9c00204618f05dfe05e604f18003628a0121cb
:104fac00b4f93a0012f05ef8a7e794f8cf30012b71
:104fbc001ad0d4f8c430d3f80480b4f93a001cf0f9
:104fcc00ddfdb0b1b4f93a001cf0f2fa1cf0eafcc9
:104fdc00c4f88800d4f884300344c4f890300e210f
:104fec00204618f035fedde50f21204618f030fe86
:104ffc00d8e51cf0d7fcd4f8ac30c51a1cf0fafc80
:10500c0000eb800085427ff6cdadb4f93a001af082
:10501c00e9fc4ff6ff736387d4f8c4301b681b6838
:10502c003249404698470f21204618f011feb9e549
:10503c00204604f0f7fe01280bd002287ff4b2ad15
:10504c000f21204618f004fe1cf0acfcc4f88c00b8
:10505c00a8e53422542138461ef09efab4f8b0303c
:10506c0073b1332b94bf1d4634255b1ba4f8b030b1
:10507c002a463946b4f93a000cf06efc8542edd064
:10508c00b4f93a001cf08dfd20460af04bfc89e582
:10509c00227d0b21b4f93c0005f082fa204604f085
:1050ac00c1fe012824d002287ff47cad12212046b9
:1050bc0018f0cefd1cf076fcc4f88c0072e500bf35
:1050cc00b0b9000070b9000075320200dcb9000004
:1050dc0004ba0000d8ee00002cba0000e0b70000c3
:1050ec008b32020064ba000094b700009cba000036
:1050fc003422552138461ef04ffab4f8b050a5b101
:10510c004ff0000800e0edb3332d32d9343dadb291
:10511c0008f134081ffa88f834223946b4f93c00f7
:10512c0019f089fb3428eed02ce0a8462ae0b4f81c
:10513c00b030a3eb0808a4f8b08020460af0f2fbcc
:10514c0030e5204616f010fbb4f93a001af04afc90
:10515c004ff6ff73638725e5204616f005fbb4f97f
:10516c003c0019f063fd1de50121204618f070fd8f
:10517c0018e5a8441ffa88f82a463946b4f93c00c9
:10518c0019f059fbb4f93c0009f0c8f90028ced14c
:10519c0000221146b4f93c001af030fb02e51bb0ba
:0851ac00bdec028bbde8f08fa1
:020000040000fa
:1051b400585e00201c00000000000000b45f0020c6
:1051c4000a0000000000000000380020a0050000d4
:1051d400000000009c5900200400000000000000b2
:1051e400e45f00200800000000000000385c00209c
:1051f4004800000000000000e05e002010000000f5
:105204000000000004610020010000000000000014
:10521400ec5f00200400000000000000745e002029
:105224001c00000000000000d45500200c00000009
:1052340000000000f05f00200400000000000000f7
:105244000061002001000000000000006c620020ea
:105254000c00000001000000f4010000d007000071
:105264000a00000024620020140000000100000075
:105274000800080002000100020008000006000601
:10528400010154004c6200201000000001000000e5
:1052940001010000a5cc0100c5f20100fa7701006c
:1052a400f45f00200800000000000000205b0020e4
:1052b4006800000000000000fc6000200100000005
:1052c4000000000010610020d40000000100000074
:1052d40034d50100000000000000000000000000c0
:1052e40000000000000000000000000000000000ba
:1052f40000000000000000000000000000000000aa
:105304000000000000000000000000000000000099
:105314000000000000000000000000000000000089
:105324000000000000000000000000000000000079
:105334000000000000000000000000000000000069
:105344000000000000000000000000000000000059
:105354000000000000000000000000000000000049
:105364000000000000000000000000000000000039
:105374000000000000000000000000000000000029
:105384000000000000000000000000000000000019
:105394000000000000000000000000000000000009
:1053a400000000006b62002001000000010000000a
:1053b400ff000000fc5f002004000000000000006b
:1053c400a05900208000000000000000bc5d002007
:1053d4002c00000000000000006000200400000019
:1053e40000000000c8570020a400000000000000d6
:1053f400a041002010030000000000007e62002095
:105404000100000001000000010000000460002011
:105414000c00000000000000d25500200200000033
:1054240000000000be5f0020020000000000000039
:10543400106000200c00000000000000fd6000204f
:1054440001000000000000001c60002004000000b7
:1054540000000000805c0020480000000000000004
:10546400786200200600000001000000ffffffff3b
:10547400ffff0000206000200c000000000000007e
:10548400785f00200c00000000000000f05e0020a7
:105494001000000000000000fe6000200100000079
:1054a40000000000845f00200c00000000000000e9
:1054b400ca5f00200200000000000000f26000202b
:1054c40002000000000000002c6000200400000026
:1054d40000000000005f0020100000000000000039
:1054e400306000200800000000000000e85d00209b
:1054f40028000000000000003860002004000000c4
:1055040000000000e4610020280000000100000009
:10551400bb010300d10101004b020100330203006f
:105524007c020300dd030300de030300e003030049
:10553400e1030100b32201000c5900209000000097
:1055440000000000b04400207002000000000000d1
:105554003c6000202800000000000000905f002054
:105564000c00000000000000c85e002018000000cd
:1055740000000000905e00201c00000000000000fd
:10558400646000200400000000000000ff600020b0
:10559400010000000000000068600020040000001a
:1055a40000000000806200200400000001000000f0
:1055b400ffffffff6c6000200400000000000000fb
:1055c400105f002010000000000000007060002048
:1055d400080000000000000001610020010000003c
:1055e40000000000585300207a0200000000000070
:1055f400c05f00200a000000000000007860002066
:105604000400000000000000f4600020040000001a
:10561400000000007c6000200c000000000000007e
:105624005c6200200f000000010000002d680000f3
:10563400002d610000002d68610000007f620020e1
:105644000100000001000000ff000000886000204d
:1056540014000000000000000261002001000000ae
:10566400000000009c600020040000000000000016
:105674008862002001000000010000000400000016
:10568400385e00202000000000000000a060002020
:105694001000000000000000f8600020020000007c
:1056a40000000000b06000200800000000000000be
:1056b400036100200100000000000000f0560020fb
:1056c400d800000000000000885d002034000000c5
:1056d40000000000b860002004000000000000008a
:1056e400056100200100000000000000bc600020f3
:1056f4000400000000000000b04b00203402000051
:1057040000000000f05100206801000000000000cb
:10571400205f002010000000000000009c5f0020bb
:105724000c00000000000000205a0020800000004f
:105734000000000000200020001000000000000015
:10574400c85c00204000000000000000485d00200c
:105754000800000000000000c060002008000000f5
:1057640000000000c86000200400000000000000e9
:10577400a05a00208000000000000000cc5f002040
:105784000800000000000000066100200100000085
:1057940000000000a03d0020000400000000000004
:1057a400cc6000200400000000000000a85f00207e
:1057b4000c00000000000000000000200020000099
:1057c400000000000761002002000000000000004b
:1057d400305f00201000000000000000096100207c
:1057e4000100000000000000d06000200400000060
:1057f400000000000a610020010000000000000019
:10580400d45f00200800000000000000405f00207a
:105814001000000000000000e0550020100100000e
:1058240000000000505f0020100000000000000095
:10583400dc5f002008000000000000000b61002075
:105844000100000000000000f060002002000000e1
:1058540000000000003000200008000000000000ec
:10586400f04d00200002000000000000105e002047
:105874002800000000000000ac5e00201c000000b6
:10588400000000000c62002018000000010000006d
:10589400105e0020ac5e0020d45500200000000003
:1058a400f04d0020000000003862002014000000c9
:1058b4000100000004310200083102000c31020032
:1058c4001431020018310200505d0020380000003d
:1058d40000000000704900204002000000000000a9
:1058e4002047002050020000000000000c6100204e
:1058f4000200000000000000d4600020040000004a
:1059040000000000605f00201000000000000000a4
:10591400fa6000200200000000000000f04f0020a8
:105924000002000000000000705f0020080000007a
:1059340000000000085d002040000000000000009e
:105944006c580020a0000000000000000e61002040
:10595400020000000100000001000000885b00203c
:105964006000000000000000d86000200c0000006f
:105974000000000084620020040000000100000018
:1059840001000000e46000200400000000000000aa
:10599400e85b00205000000000000000e8600020e8
:1059a4000400000000000000ec600020040000007f
:1059b40000000000e44d00200c0000000000000086
:1059c40000000000000000006666666666666666a3
:020000040000fa
:1059d4002de9f04f97b011900d461746019311a889
:1059e40017f0bafb0028c0f28c83b84b53f8203070
:1059f4000bb100221a70b64b13f81020029203eb7d
:105a0400400393f80190b34b002d08bf1d46104688
:105a14001df0d4fe10f0010f40f0758310f0040f58
:105a240040f076836b681593002b5dd0159a531e56
:105a3400b3f5004f62d30123159395f8018008f163
:105a4400ff33dbb2022b28bf4ff00108ae68731e90
:105a5400b3f5004f55d206f00f03002b18bf4ff4d7
:105a64000076ec68b4f1807f4ed8631e2340002b8f
:105a740018bf0024019bb3f5007fc0f04b83002fb7
:105a840000f04a832b78049300231493b9f1000f98
:105a94003cd001230022394602981bf021fd002846
